{
  "_format": "hh3-artifact-1",
  "contractName": "ChainSplit",
  "sourceName": "contracts/ChainSplit.sol",
  "abi": [
    {
      "inputs": [],
      "stateMutability": "nonpayable",
      "type": "constructor"
    },
    {
      "inputs": [
        {
          "internalType": "address",
          "name": "owner",
          "type": "address"
        }
      ],
      "name": "OwnableInvalidOwner",
      "type": "error"
    },
    {
      "inputs": [
        {
          "internalType": "address",
          "name": "account",
          "type": "address"
        }
      ],
      "name": "OwnableUnauthorizedAccount",
      "type": "error"
    },
    {
      "inputs": [],
      "name": "ReentrancyGuardReentrantCall",
      "type": "error"
    },
    {
      "anonymous": false,
      "inputs": [
        {
          "indexed": true,
          "internalType": "address",
          "name": "previousOwner",
          "type": "address"
        },
        {
          "indexed": true,
          "internalType": "address",
          "name": "newOwner",
          "type": "address"
        }
      ],
      "name": "OwnershipTransferred",
      "type": "event"
    },
    {
      "inputs": [],
      "name": "PENALTY_BPS",
      "outputs": [
        {
          "internalType": "uint256",
          "name": "",
          "type": "uint256"
        }
      ],
      "stateMutability": "view",
      "type": "function"
    },
    {
      "inputs": [],
      "name": "PROTOCOL_FEE_BPS",
      "outputs": [
        {
          "internalType": "uint256",
          "name": "",
          "type": "uint256"
        }
      ],
      "stateMutability": "view",
      "type": "function"
    },
    {
      "inputs": [],
      "name": "accumulatedFees",
      "outputs": [
        {
          "internalType": "uint256",
          "name": "",
          "type": "uint256"
        }
      ],
      "stateMutability": "view",
      "type": "function"
    },
    {
      "inputs": [
        {
          "internalType": "uint256",
          "name": "_id",
          "type": "uint256"
        }
      ],
      "name": "autoRelease",
      "outputs": [],
      "stateMutability": "nonpayable",
      "type": "function"
    },
    {
      "inputs": [
        {
          "internalType": "uint256",
          "name": "_id",
          "type": "uint256"
        }
      ],
      "name": "canRelease",
      "outputs": [
        {
          "internalType": "bool",
          "name": "",
          "type": "bool"
        }
      ],
      "stateMutability": "view",
      "type": "function"
    },
    {
      "inputs": [],
      "name": "collectFees",
      "outputs": [],
      "stateMutability": "nonpayable",
      "type": "function"
    },
    {
      "inputs": [
        {
          "internalType": "uint256",
          "name": "_id",
          "type": "uint256"
        },
        {
          "internalType": "address",
          "name": "_c",
          "type": "address"
        },
        {
          "internalType": "address",
          "name": "_p",
          "type": "address"
        },
        {
          "internalType": "uint256",
          "name": "_dl",
          "type": "uint256"
        },
        {
          "internalType": "uint256",
          "name": "_pBps",
          "type": "uint256"
        },
        {
          "internalType": "uint256",
          "name": "_cBps",
          "type": "uint256"
        }
      ],
      "name": "depositCustom",
      "outputs": [],
      "stateMutability": "payable",
      "type": "function"
    },
    {
      "inputs": [
        {
          "internalType": "uint256",
          "name": "",
          "type": "uint256"
        }
      ],
      "name": "escrows",
      "outputs": [
        {
          "internalType": "address",
          "name": "creator",
          "type": "address"
        },
        {
          "internalType": "address",
          "name": "platform",
          "type": "address"
        },
        {
          "internalType": "uint256",
          "name": "creatorLocked",
          "type": "uint256"
        },
        {
          "internalType": "uint256",
          "name": "platformLocked",
          "type": "uint256"
        },
        {
          "internalType": "uint256",
          "name": "deadline",
          "type": "uint256"
        },
        {
          "internalType": "bool",
          "name": "platformApproved",
          "type": "bool"
        },
        {
          "internalType": "bool",
          "name": "creatorApproved",
          "type": "bool"
        },
        {
          "internalType": "bool",
          "name": "isSettled",
          "type": "bool"
        }
      ],
      "stateMutability": "view",
      "type": "function"
    },
    {
      "inputs": [],
      "name": "owner",
      "outputs": [
        {
          "internalType": "address",
          "name": "",
          "type": "address"
        }
      ],
      "stateMutability": "view",
      "type": "function"
    },
    {
      "inputs": [],
      "name": "renounceOwnership",
      "outputs": [],
      "stateMutability": "nonpayable",
      "type": "function"
    },
    {
      "inputs": [],
      "name": "totalEscrows",
      "outputs": [
        {
          "internalType": "uint256",
          "name": "",
          "type": "uint256"
        }
      ],
      "stateMutability": "view",
      "type": "function"
    },
    {
      "inputs": [
        {
          "internalType": "address",
          "name": "newOwner",
          "type": "address"
        }
      ],
      "name": "transferOwnership",
      "outputs": [],
      "stateMutability": "nonpayable",
      "type": "function"
    }
  ],
  "bytecode": "0x608060405234801561000f575f5ffd5b50335f73ffffffffffffffffffffffffffffffffffffffff168173ffffffffffffffffffffffffffffffffffffffff1603610081575f6040517f1e4fbdf700000000000000000000000000000000000000000000000000000000815260040161007891906101ec565b60405180910390fd5b610090816100ba60201b60201c565b5060016100af6100a461017b60201b60201c565b6101a460201b60201c565b5f0181905550610205565b5f5f5f9054906101000a900473ffffffffffffffffffffffffffffffffffffffff169050815f5f6101000a81548173ffffffffffffffffffffffffffffffffffffffff021916908373ffffffffffffffffffffffffffffffffffffffff1602179055508173ffffffffffffffffffffffffffffffffffffffff168173ffffffffffffffffffffffffffffffffffffffff167f8be0079c531659141344cd1fd0a4f28419497f9722a3daafe3b4186f6b6457e060405160405180910390a35050565b5f7f9b779b17422d0df92223018b32b4d1fa46e071723d6817e2486d003becc55f005f1b905090565b5f819050919050565b5f73ffffffffffffffffffffffffffffffffffffffff82169050919050565b5f6101d6826101ad565b9050919050565b6101e6816101cc565b82525050565b5f6020820190506101ff5f8301846101dd565b92915050565b611115806102125f395ff3fe6080604052600436106100a6575f3560e01c8063715018a611610063578063715018a6146101af5780638da5cb5b146101c5578063b2f70e96146101ef578063be3782281461022b578063c879657214610255578063f2fde38b1461026b576100a6565b8063012f52ee146100aa578063106c8eae146100ed5780631efe532114610109578063459b860e14610133578063587f5ed71461015b57806363ee7c8d14610185575b5f5ffd5b3480156100b5575f5ffd5b506100d060048036038101906100cb9190610c2e565b610293565b6040516100e4989796959493929190610cc1565b60405180910390f35b61010760048036038101906101029190610d67565b61033b565b005b348015610114575f5ffd5b5061011d6105a5565b60405161012a9190610df0565b60405180910390f35b34801561013e575f5ffd5b5061015960048036038101906101549190610c2e565b6105ab565b005b348015610166575f5ffd5b5061016f610834565b60405161017c9190610df0565b60405180910390f35b348015610190575f5ffd5b5061019961083a565b6040516101a69190610df0565b60405180910390f35b3480156101ba575f5ffd5b506101c3610840565b005b3480156101d0575f5ffd5b506101d9610853565b6040516101e69190610e09565b60405180910390f35b3480156101fa575f5ffd5b5061021560048036038101906102109190610c2e565b61087a565b6040516102229190610e22565b60405180910390f35b348015610236575f5ffd5b5061023f6108f1565b60405161024c9190610df0565b60405180910390f35b348015610260575f5ffd5b506102696108f6565b005b348015610276575f5ffd5b50610291600480360381019061028c9190610e3b565b610959565b005b6003602052805f5260405f205f91509050805f015f9054906101000a900473ffffffffffffffffffffffffffffffffffffffff1690806001015f9054906101000a900473ffffffffffffffffffffffffffffffffffffffff1690806002015490806003015490806004015490806005015f9054906101000a900460ff16908060050160019054906101000a900460ff16908060050160029054906101000a900460ff16905088565b6103436109dd565b61271060c882846103549190610e93565b61035e9190610e93565b1461039e576040517f08c379a000000000000000000000000000000000000000000000000000000000815260040161039590610f20565b60405180910390fd5b5f61271060c8346103af9190610f3e565b6103b99190610fac565b90508060015f8282546103cc9190610e93565b925050819055506040518061010001604052808773ffffffffffffffffffffffffffffffffffffffff1681526020018673ffffffffffffffffffffffffffffffffffffffff16815260200161271084346104269190610f3e565b6104309190610fac565b815260200161271085346104449190610f3e565b61044e9190610fac565b81526020018581526020015f151581526020015f151581526020015f151581525060035f8981526020019081526020015f205f820151815f015f6101000a81548173ffffffffffffffffffffffffffffffffffffffff021916908373ffffffffffffffffffffffffffffffffffffffff1602179055506020820151816001015f6101000a81548173ffffffffffffffffffffffffffffffffffffffff021916908373ffffffffffffffffffffffffffffffffffffffff16021790555060408201518160020155606082015181600301556080820151816004015560a0820151816005015f6101000a81548160ff02191690831515021790555060c08201518160050160016101000a81548160ff02191690831515021790555060e08201518160050160026101000a81548160ff02191690831515021790555090505060025487111561059c57866002819055505b50505050505050565b6101f481565b6105b36109dd565b6105bb610a64565b5f60035f8381526020019081526020015f2090508060050160029054906101000a900460ff1615610621576040517f08c379a000000000000000000000000000000000000000000000000000000000815260040161061890611026565b60405180910390fd5b5f816005015f9054906101000a900460ff16801561064d57508160050160019054906101000a900460ff165b9050808061065e5750816004015442115b61069d576040517f08c379a00000000000000000000000000000000000000000000000000000000081526004016106949061108e565b60405180910390fd5b8160040154421180156106be5750816005015f9054906101000a900460ff16155b15610719575f6127106101f484600301546106d99190610f3e565b6106e39190610fac565b905080836003015f8282546106f891906110ac565b925050819055508060015f8282546107109190610e93565b92505081905550505b5f826002015490505f836003015490505f84600201819055505f846003018190555060018460050160026101000a81548160ff021916908315150217905550835f015f9054906101000a900473ffffffffffffffffffffffffffffffffffffffff1673ffffffffffffffffffffffffffffffffffffffff166108fc8390811502906040515f60405180830381858888f193505050501580156107bd573d5f5f3e3d5ffd5b50836001015f9054906101000a900473ffffffffffffffffffffffffffffffffffffffff1673ffffffffffffffffffffffffffffffffffffffff166108fc8290811502906040515f60405180830381858888f19350505050158015610824573d5f5f3e3d5ffd5b5050505050610831610a86565b50565b60015481565b60025481565b6108486109dd565b6108515f610aa0565b565b5f5f5f9054906101000a900473ffffffffffffffffffffffffffffffffffffffff16905090565b5f5f60035f8481526020019081526020015f2090508060050160029054906101000a900460ff16156108af575f9150506108ec565b806005015f9054906101000a900460ff1680156108da57508060050160019054906101000a900460ff165b806108e85750806004015442115b9150505b919050565b60c881565b6108fe6109dd565b5f60015490505f600181905550610913610853565b73ffffffffffffffffffffffffffffffffffffffff166108fc8290811502906040515f60405180830381858888f19350505050158015610955573d5f5f3e3d5ffd5b5050565b6109616109dd565b5f73ffffffffffffffffffffffffffffffffffffffff168173ffffffffffffffffffffffffffffffffffffffff16036109d1575f6040517f1e4fbdf70000000000000000000000000000000000000000000000000000000081526004016109c89190610e09565b60405180910390fd5b6109da81610aa0565b50565b6109e5610b61565b73ffffffffffffffffffffffffffffffffffffffff16610a03610853565b73ffffffffffffffffffffffffffffffffffffffff1614610a6257610a26610b61565b6040517f118cdaa7000000000000000000000000000000000000000000000000000000008152600401610a599190610e09565b60405180910390fd5b565b610a6c610b68565b6002610a7e610a79610ba9565b610bd2565b5f0181905550565b6001610a98610a93610ba9565b610bd2565b5f0181905550565b5f5f5f9054906101000a900473ffffffffffffffffffffffffffffffffffffffff169050815f5f6101000a81548173ffffffffffffffffffffffffffffffffffffffff021916908373ffffffffffffffffffffffffffffffffffffffff1602179055508173ffffffffffffffffffffffffffffffffffffffff168173ffffffffffffffffffffffffffffffffffffffff167f8be0079c531659141344cd1fd0a4f28419497f9722a3daafe3b4186f6b6457e060405160405180910390a35050565b5f33905090565b610b70610bdb565b15610ba7576040517f3ee5aeb500000000000000000000000000000000000000000000000000000000815260040160405180910390fd5b565b5f7f9b779b17422d0df92223018b32b4d1fa46e071723d6817e2486d003becc55f005f1b905090565b5f819050919050565b5f6002610bee610be9610ba9565b610bd2565b5f015414905090565b5f5ffd5b5f819050919050565b610c0d81610bfb565b8114610c17575f5ffd5b50565b5f81359050610c2881610c04565b92915050565b5f60208284031215610c4357610c42610bf7565b5b5f610c5084828501610c1a565b91505092915050565b5f73ffffffffffffffffffffffffffffffffffffffff82169050919050565b5f610c8282610c59565b9050919050565b610c9281610c78565b82525050565b610ca181610bfb565b82525050565b5f8115159050919050565b610cbb81610ca7565b82525050565b5f61010082019050610cd55f83018b610c89565b610ce2602083018a610c89565b610cef6040830189610c98565b610cfc6060830188610c98565b610d096080830187610c98565b610d1660a0830186610cb2565b610d2360c0830185610cb2565b610d3060e0830184610cb2565b9998505050505050505050565b610d4681610c78565b8114610d50575f5ffd5b50565b5f81359050610d6181610d3d565b92915050565b5f5f5f5f5f5f60c08789031215610d8157610d80610bf7565b5b5f610d8e89828a01610c1a565b9650506020610d9f89828a01610d53565b9550506040610db089828a01610d53565b9450506060610dc189828a01610c1a565b9350506080610dd289828a01610c1a565b92505060a0610de389828a01610c1a565b9150509295509295509295565b5f602082019050610e035f830184610c98565b92915050565b5f602082019050610e1c5f830184610c89565b92915050565b5f602082019050610e355f830184610cb2565b92915050565b5f60208284031215610e5057610e4f610bf7565b5b5f610e5d84828501610d53565b91505092915050565b7f4e487b71000000000000000000000000000000000000000000000000000000005f52601160045260245ffd5b5f610e9d82610bfb565b9150610ea883610bfb565b9250828201905080821115610ec057610ebf610e66565b5b92915050565b5f82825260208201905092915050565b7f425053206d75737420746f74616c2031303025000000000000000000000000005f82015250565b5f610f0a601383610ec6565b9150610f1582610ed6565b602082019050919050565b5f6020820190508181035f830152610f3781610efe565b9050919050565b5f610f4882610bfb565b9150610f5383610bfb565b9250828202610f6181610bfb565b91508282048414831517610f7857610f77610e66565b5b5092915050565b7f4e487b71000000000000000000000000000000000000000000000000000000005f52601260045260245ffd5b5f610fb682610bfb565b9150610fc183610bfb565b925082610fd157610fd0610f7f565b5b828204905092915050565b7f416c726561647920736574746c656400000000000000000000000000000000005f82015250565b5f611010600f83610ec6565b915061101b82610fdc565b602082019050919050565b5f6020820190508181035f83015261103d81611004565b9050919050565b7f4e6f7420726561647900000000000000000000000000000000000000000000005f82015250565b5f611078600983610ec6565b915061108382611044565b602082019050919050565b5f6020820190508181035f8301526110a58161106c565b9050919050565b5f6110b682610bfb565b91506110c183610bfb565b92508282039050818111156110d9576110d8610e66565b5b9291505056fea26469706673582212207f0be54d6fe0efd018e78e97cebeda9cc2ae5fea1a9cc97f21b6fd0f457c578464736f6c634300081c0033",
  "linkReferences": {},
  "deployedLinkReferences": {},
  "immutableReferences": {},
  "inputSourceName": "project/contracts/ChainSplit.sol",
  "buildInfoId": "solc-0_8_28-e3843fa748c012d6ff860cd25c71fbf53058e681"
}